:020000041A00E0
:10000000008000108D05001A7901001A7B01001A8A
:100010007D01001A7F01001A8101001A0273FF534B
:100020000000000000000000000000008110001A25
:100030008501001A000000002111001A8511001A24
:10004000F912001ABB01001ABB01001A00000000DF
:10005000BB01001ABB01001ABB01001ABB01001A48
:100060001123001ABB01001ABB01001ABB01001AC0
:10007000BB01001ABB01001ABB01001ABB01001A28
:10008000BB01001ABB01001ABB01001ABB01001A18
:10009000BB01001ABB01001ABB01001ABB01001A08
:1000A000BB01001ABB01001ABB01001ABB01001AF8
:1000B000BB01001ABB01001ABB01001ABB01001AE8
:1000C000BB01001ABB01001ABB01001ABB01001AD8
:1000D000BB01001ABB01001ABB01001ABB01001AC8
:1000E000BB01001ABB01001ABB01001ABB01001AB8
:1000F00000000000BB01001ABB01001ABB01001A7E
:1001000000000000BB01001ABB01001ABB01001A6D
:10011000BB01001AF884001A00000010EC0900006E
:10012000F884001A0000081000000000F884001A8B
:100130000000002000000000F884001A0080002069
:1001400000000000F884001A00C000200000000039
:10015000EC090010BC2100000000081000000000A5
:1001600000000020000000000080002000000000CF
:1001700000C0002000000000FEE7FEE7FEE7FEE70B
:10018000FEE7FEE7FEE7FEE7FEE7002393420AD222
:1001900010B450F8044B41F8044B04339342F8D3A5
:1001A0005DF8044B7047704700238B4204D2002255
:1001B00040F8042B0433F8E77047FEE7FFFFFFFF2A
:1001C000FFFFFFFFFFFFFFFFFFFFFFFFFFFFFFFF3F
:1001D000FFFFFFFFFFFFFFFFFFFFFFFFFFFFFFFF2F
:1001E000FFFFFFFFFFFFFFFFFFFFFFFFFFFFFFFF1F
:1001F000FFFFFFFFFFFFFFFFFFFFFFFFFFFFFFFF0F
:10020000FFFFFFFFFFFFFFFFFFFFFFFFFFFFFFFFFE
:10021000FFFFFFFFFFFFFFFFFFFFFFFFFFFFFFFFEE
:10022000FFFFFFFFFFFFFFFFFFFFFFFFFFFFFFFFDE
:10023000FFFFFFFFFFFFFFFFFFFFFFFFFFFFFFFFCE
:10024000FFFFFFFFFFFFFFFFFFFFFFFFFFFFFFFFBE
:10025000FFFFFFFFFFFFFFFFFFFFFFFFFFFFFFFFAE
:10026000FFFFFFFFFFFFFFFFFFFFFFFFFFFFFFFF9E
:10027000FFFFFFFFFFFFFFFFFFFFFFFFFFFFFFFF8E
:10028000FFFFFFFFFFFFFFFFFFFFFFFFFFFFFFFF7E
:10029000FFFFFFFFFFFFFFFFFFFFFFFFFFFFFFFF6E
:1002A000FFFFFFFFFFFFFFFFFFFFFFFFFFFFFFFF5E
:1002B000FFFFFFFFFFFFFFFFFFFFFFFFFFFFFFFF4E
:1002C000FFFFFFFFFFFFFFFFFFFFFFFFFFFFFFFF3E
:1002D000FFFFFFFFFFFFFFFFFFFFFFFFFFFFFFFF2E
:1002E000FFFFFFFFFFFFFFFFFFFFFFFFFFFFFFFF1E
:1002F000FFFFFFFFFFFFFFFFFFFFFFFFFFFFFFFF0E
:1003000010B5044600F0CEFE2401034B00221A551E
:1003100000F0EAFE10BD00BF5C2B001038B50546AA
:1003200000F066FC044600F0BDFE034800EB05103B
:10033000446000F0D9FE38BD5C2B001010B500F011
:10034000B1FE034BDC6800F0CFFE204610BD00BFBD
:100350005C2B001008B500F0A5FE034B0022DA600C
:1003600000F0C2FE08BD00BF5C2B001038B505468A
:1003700000F03EFC65B9044600F094FE064B03EB2A
:1003800005139C605A68A41ADC6000F0ADFE38BD0D
:10039000FFF7E0FFFBE700BF5C2B001070B582B0F9
:1003A00000230BE0174819014218002444544FF071
:1003B000FF3151609160D1600133DBB2012BF1D983
:1003C00000240194012500952346B4220E490F48CC
:1003D00000F096FB0646019400952346B4220C4992
:1003E0000C4800F08DFBAE420AD0A84208D04FF076
:1003F000A00383F31188BFF36F8FBFF34F8FFEE726
:1004000002B070BD5C2B0010047F001AB104001A0A
:10041000107F001AC104001A10B504460301224AD5
:10042000D35C032B3CD8DFE803F0021E0C291F4BE2
:10043000185601F038FF68B924011B4B02221A55E7
:1004400008E01A4B185601F02EFF20B12401164B7C
:1004500000221A5510BD2301134A0121D154204610
:10046000FFF75CFFF6E7114B185601F01CFF002860
:10047000F0D024010C4B03221A55EBE70B4B185616
:1004800001F011FF20B92401074B01221A55E1E7C1
:100490002301054A0021D1542046FFF767FFD9E721
:1004A000FFF72EFFD6E700BF5C2B00101C7F001A61
:1004B00008B50020FFF7B0FF282000F0FBFCF8E7AC
:1004C00008B50120FFF7A8FF282000F0F3FCF8E7AB
:1004D00010B582B000F08CFB019004E04FF47A710B
:1004E00001A800F095FCFFF729FF0446B0F1FF3F9B
:1004F000F4D001212A2001F0A1FE204600F0DAFC10
:1005000000212A2001F09AFEE8E7FFFF00B583B042
:1005100001F00CFF114803F001FC002301930122BC
:100520000092B4220E490F4800F0EAFA012808D0E0
:100530004FF0A00383F31188BFF36F8FBFF34F8F8A
:10054000FEE7FFF72BFF00F00DFB4FF0A00383F356
:100550001188BFF36F8FBFF34F8FFEE7207F001A24
:10056000287F001AD104001A08B5064803F038FCA9
:100570004FF0A00383F31188BFF36F8FBFF34F8F4A
:10058000FEE700BF347F001A7047FFFF10B572B658
:10059000194B1A4A1A600433194A1A60002305E0FD
:1005A000184A4FF0FF3142F823100133072BF7D9D7
:1005B00062B6154B07E003F10C049A685968186895
:1005C000FFF7E3FD2346114A9342F4D306E01C46AD
:1005D000596854F8080BFFF7E7FD23460C4A93428D
:1005E000F5D301F011FD02F0BFFFFFF7CDFFFFF7DC
:1005F0008DFF30BFFDE700BF003105400010DF1068
:10060000FFF7DF0180E200E01401001A5001001A38
:100610007801001A70477047092303604FF0FF30DC
:100620007047582303604FF0FF307047022904D908
:10063000092303604FF0FF307047012070475823B3
:1006400003604FF0FF30704702291FD82DE9F041B9
:100650001D46174606460024AC4211D200F04BFF5F
:10066000B0F1FF3FF8D004F1010838550D2803D050
:100670000A2801D04446EFE700F03DFF404603E082
:10068000132333604FF0FF30BDE8F0811323036084
:100690004FF0FF30704702290CD870B51D46164642
:1006A0000024AC4204D2305D00F020FF0134F8E7B2
:1006B000284670BD132303604FF0FF307047FFFFE3
:1006C000054B1B6823B1044B18680144196070473F
:1006D000014B024A1A60F6E7EC090010A82B001043
:1006E00038B5044610F0070F02D020F00704083494
:1006F00000F076FA134B1B687BB1134B1B681C444C
:1007000041F6F77294420ED8A34210D300F002FBD8
:100710000025FFF729FF284638BD0C4B23F00703BF
:10072000084A1360E9E700F0F5FA0025F1E7054A09
:1007300015681D44044B1C6000F0ECFA002DEAD152
:10074000E7E700BFF0090010F4290010FC090010D1
:1007500040B14FF0A00383F31188BFF36F8FBFF355
:100760004F8FFEE7704700F1080343604FF0FF3200
:100770008260C3600361002303607047002303614C
:10078000704743684B609A688A605160996008615D
:10079000036801330360704730B40D68B5F1FF3F63
:1007A00002D000F1080202E0026904E01A46536830
:1007B0001C68AC42FAD953684B6099608A605160FA
:1007C000086103680133036030BC70470369416806
:1007D00082688A60416851605A68824206D000226D
:1007E00002611A68013A1A601868704782685A6094
:1007F000F5E7FFFF10B582B00C460190002300938F
:1008000000F050FC01992246044803F087FA009B4F
:10081000002BFCD000F068FC02B010BDBC7F001AB9
:1008200008B5044803F07AFA03495020FFF7E2FFC5
:1008300008BD00BF8C7F001A6C7F001A084B1B6834
:100840001B6823B9074B4FF0FF321A607047044B07
:100850001B68DB68DB685A68024B1A60704700BF90
:10086000FC290010D42A001010B50446006BFFF7D5
:100870006FFF2046FFF76CFF10BD2DE9F047814662
:100880000D4617469A46089EDDF824800A9C920081
:10089000A521206B03F0E6F9236B07F18042013AB2
:1008A00003EB820727F00707676400230F2B06D8A6
:1008B000EA5CE11881F834200AB10133F6E700233D
:1008C00084F84330062E00D90626E662A664002589
:1008D000E564201DFFF752FF04F11800FFF74EFFFB
:1008E0002461C6F10706A6616462256584F8545048
:1008F00052464946384600F0A7FB2060B8F1000F89
:1009000001D0C8F80040BDE8F087FFFF38B50024EB
:10091000062C08D804EB840293000C481844FFF717
:1009200022FF0134F4E70A4D2846FFF71CFF094C6B
:100930002046FFF718FF0848FFF715FF0748FFF7A5
:1009400012FF074B1D60074B1C6038BD042A0010C6
:10095000A82A0010BC2A0010DC2A0010F42A00107B
:10096000FC290010002A001010B5044600F09AFB84
:10097000204A1368013313601F4B1B685BB11F4B88
:100980001B686BB91C4B1B68DA6AE36A9A4207D88A
:10099000194B1C6004E0184B1C601368012B26D017
:1009A000174A136801331360E36A01229A4015491C
:1009B000086802430A6003EB83039A00211D124872
:1009C0001044FFF7DEFE00F08FFB0C4B1B686BB191
:1009D000094B1B68DA6AE36A9A4207D20B4B4FF065
:1009E00080521A60BFF34F8FBFF36F8F10BDFFF7B8
:1009F0008DFFD5E7902A0010F8290010F02A00108A
:100A0000A02A0010A42A0010042A001004ED00E01F
:100A10000F4B1B68D3B110B500F044FB0D4BDB68E6
:100A2000DC68201DFFF7D2FE0B4A1368013B136000
:100A3000074A1368013B136000F056FB2046FFF79E
:100A400013FF034B1B68002BE6D110BD704700BF9E
:100A5000942A0010F42A0010902A001008B5FFF71D
:100A6000D7FF064B1B68012BF9D9054B4FF080527D
:100A70001A60BFF34F8FBFF36F8FF0E7042A0010A7
:100A800004ED00E038B50446174B1D68174B186895
:100A90000430FFF79BFE50B9144B1B68DA6A012340
:100AA00003FA02F212490B6823EA02030B602C449A
:100AB0000E4B1B685C60A54207D90E4B18680B4BA8
:100AC00019680431FFF768FE38BD0B4B1868074BF7
:100AD00019680431FFF760FE084B1B68A342F3D985
:100AE000064B1C60F0E700BF082B0010F82900102F
:100AF000A42A0010002A0010FC290010D42A00109B
:100B00002DE9F04385B00746884614469946900083
:100B1000FFF7E6FDE8B106465820FFF7E1FD054680
:100B200098B10663D5B10023039302950D9B019301
:100B30000C9B00934B46224641463846FFF79DFEEC
:100B40002846FFF711FF012005E03046FFF700FEC1
:100B5000E8E74FF0FF3005B0BDE8F0834FF0FF301D
:100B6000F9E7FFFF00B583B0174B01930023009313
:100B70005A2216491648FFF7C3FF012805D0B0F1E5
:100B8000FF3F17D003B05DF804FB4FF0A00383F3E1
:100B90001188BFF36F8FBFF34F8F0E4B4FF0FF32B3
:100BA0001A600D4B01221A600C4B00221A6000F0F3
:100BB0001BFBE7E74FF0A00383F31188BFF36F8FB0
:100BC000BFF34F8FFEE700BFD02A0010FC7F001A52
:100BD0005D0A001AD42A0010F02A0010082B001019
:100BE000024A136801331360704700BF9C2A00104B
:100BF000014B1868704700BF082B0010F8B53A4B3E
:100C00001B68002B64D1394B1D6801351D60C5B9C7
:100C1000374B1B681B6843B14FF0A00383F3118867
:100C2000BFF36F8FBFF34F8FFEE7314A1168314B2F
:100C3000186810601960304A136801331360FFF7B9
:100C4000FDFD2E4B1B68AB4238D900242C4B1B6892
:100C5000DB6A03EB83039A002A4B9B58012B3CD998
:100C600001243AE00124224B1B681B6843B3204B4C
:100C70001B68DB68DE6873689D4226D3371D3846E3
:100C8000FFF7A4FDB36A1BB106F11800FFF79EFD44
:100C9000F36A01229A401C49086802430A6003EB88
:100CA00083039A00394617481044FFF76AFDF26A39
:100CB000134B1B68DB6A9A42D4D2D4E70024D2E7F4
:100CC0000E4B4FF0FF321A60C0E70C4A1360BDE7CD
:100CD0000E4A13680133136000240D4B1B6803B1E7
:100CE00001242046F8BD00BF9C2A0010082B0010EC
:100CF000FC290010002A0010D82A0010D42A001065
:100D0000F8290010042A0010A42A0010982A0010C4
:100D10000C2B001038B5354B1B6843B94FF0A003BE
:100D200083F31188BFF36F8FBFF34F8FFEE700F09F
:100D3000B9F92E4B1A68013A1A601B68002B4DD185
:100D40002B4B1B680BB9002449E00024294B1B687E
:100D50001BB3284BDB68DC6804F11800FFF736FD95
:100D6000251D2846FFF732FDE36A01229A402249F9
:100D7000086802430A6003EB83039A0029461F4870
:100D80001044FFF7FEFCE26A1D4B1B68DB6A9A42C7
:100D9000DCD31C4B01221A60D8E70CB1FFF74EFDE3
:100DA000194B1C6874B9174B1B68E3B1174B4FF014
:100DB00080521A60BFF34F8FBFF36F8F01240EE094
:100DC000013C07D0FFF71AFF0028F9D00D4B012294
:100DD0001A60F5E70C4B00221A60E4E7002400F0EB
:100DE00083F9204638BD0024F9E700BF9C2A001093
:100DF000902A0010DC2A0010A42A0010042A0010F7
:100E0000F82900100C2B0010982A001004ED00E0C7
:100E100038B550B1054689B94FF0A00383F3118866
:100E2000BFF36F8FBFF34F8FFEE74FF0A00383F345
:100E30001188BFF36F8FBFF34F8FFEE71A4B1B680C
:100E400043B14FF0A00383F31188BFF36F8FBFF35B
:100E50004F8FFEE70C46FFF7C3FE144B18682A6855
:100E60001444824209D9A24201D82C600EE0A0426B
:100E700001D32C600AE02C6004E0A24201D8A04219
:100E800010D22C600021201AFFF7FCFDFFF742FF73
:100E900038B9074B4FF080521A60BFF34F8FBFF342
:100EA0006F8F38BD2C60F1E79C2A0010082B0010D2
:100EB00004ED00E010B5A8B104460F4B1B6843B128
:100EC0004FF0A00383F31188BFF36F8FBFF34F8FF1
:100ED000FEE7FFF785FE00212046FFF7D3FDFFF771
:100EE00019FF38B9054B4FF080521A60BFF34F8F8E
:100EF000BFF36F8F10BD00BF9C2A001004ED00E00F
:100F00002D4B1B681BB12D4B01221A60704710B589
:100F10002A4B00221A602A4B1B681B6B1A68B2F11D
:100F2000A53F03D15A68B2F1A53F1BD0244B1868E6
:100F300019683431FFF774FC224B1B68B3FA83F352
:100F4000DBB2C3F11F0303EB83018A001E498A58F9
:100F50008AB94FF0A00383F31188BFF36F8FBFF3FB
:100F60004F8FFEE79A68B2F1A53FDFD1DB68B3F19E
:100F7000A53FDBD1E0E714489A00D418A100014452
:100F80004C6864684C601A449100083108448442FB
:100F900009D003EB83039A000B4B13445B68DA68B8
:100FA000074B1A6010BD606803EB83029100064A8C
:100FB0000A445060EDE700BF9C2A00100C2B001083
:100FC000F8290010A42A0010042A001082B000237F
:100FD00001930D4B1B68B3F1FF3F08D04FF0A00306
:100FE00083F31188BFF36F8FBFF34F8FFEE74FF08E
:100FF000A00383F31188BFF36F8FBFF34F8F019B63
:10100000002BFCD002B070470000001008480068B8
:10101000006880F308884FF0000080F3148862B6FF
:1010200061B6BFF34F8FBFF36F8F00DF00BF0000CB
:1010300008ED00E0DFF80C00016841F47001016088
:101040007047000088ED00E04FF0807340F8043CEA
:1010500021F0010140F8081C054B40F80C3C40F819
:10106000202C6FF0020340F8243C4438704700BF46
:10107000CD0F001AFFFFFFFFFFFFFFFFFFFFFFFF86
:10108000074B19680868B0E8F04F80F30988BFF390
:101090006F8F4FF0000080F311887047AFF300802E
:1010A000F82900104FF0A00383F31188BFF36F8F6E
:1010B000BFF34F8F0A4A136801331360012B00D02E
:1010C0007047084B1B6813F0FF0FF9D04FF0A003D7
:1010D00083F31188BFF36F8FBFF34F8FFEE700BF1D
:1010E0000000001004ED00E0094B1B6843B94FF00D
:1010F000A00383F31188BFF36F8FBFF34F8FFEE719
:10110000013B034A13600BB983F31188704700BF9A
:1011100000000010FFFFFFFFFFFFFFFFFFFFFFFFCB
:10112000EFF30980BFF36F8F154B1A681EF0100F95
:1011300008BF20ED108A20E9F04F10602DE909006A
:101140004FF0A00080F31188BFF34F8FBFF36F8F74
:10115000FFF7D6FE4FF0000080F3118809BC196834
:101160000868B0E8F04F1EF0100F08BFB0EC108A0E
:1011700080F30988BFF36F8F704700BFAFF3008023
:10118000F829001008B54FF0A00383F31188BFF3CE
:101190006F8FBFF34F8FFFF731FD18B1034B4FF047
:1011A00080521A60002383F3118808BD04ED00E02B
:1011B000084A0023136008490B60084B1B68084964
:1011C000A1FB03139B09013B06490B600723136036
:1011D000704700BF10E000E018E000E07C2B00103A
:1011E000D34D621014E000E03A4B1A683A4B9A4231
:1011F00029D0384B1A68394B9A422DD010B582B09D
:10120000374B1A78D2B20192FF221A701B78DBB2E8
:101210008DF803309DF8033003F0A003314A1370BA
:10122000314B07221A609DF8033013F0800F1CD059
:101230002D4A1368013B13609DF803305B00DBB25D
:101240008DF80330EFE74FF0A00383F31188BFF36D
:101250006F8FBFF34F8FFEE74FF0A00383F311882A
:10126000BFF36F8FBFF34F8FFEE71F4B1B68042B3D
:1012700008D04FF0A00383F31188BFF36F8FBFF343
:101280004F8FFEE71B0203F4E063174A1360019BD4
:10129000DBB2134A1370154B1A6842F460021A60ED
:1012A0001A6842F060421A60FFF782FF0024104B78
:1012B0001C60FFF7BFFE0F4A136843F04043136002
:1012C000FFF7A4FEFFF71CFEFFF780FE204602B0EA
:1012D00010BD00BF00ED00E071C20F4170C20F41B0
:1012E00000E400E0102B0010142B001020ED00E0B3
:1012F0000000001034EF00E008B5054B0122C3F8F0
:101300008021044B1B6813B1024B1B68984708BD32
:1013100000E100E0182B00100022052A19D870B453
:101320000C4911F8125001EB42014C780A4B05F5BB
:10133000006653F826100120A040014343F8261010
:1013400003EB4513002119550132052AE8D970BC79
:10135000704770471080001A00400F400023032B95
:1013600016D830B40B4911F8132001EB43014D7826
:10137000094C02F5006254F822100120A84021EA2D
:10138000000144F822100133032BEBD930BC704725
:10139000704700BF0880001A00400F400023082B50
:1013A00016D830B40B4911F8132001EB43014D78E6
:1013B000094C02F5006254F822100120A84021EAED
:1013C000000144F822100133082BEBD930BC7047E0
:1013D000704700BF1C80001A00400F4010B582B05B
:1013E000084C6946204600F0B9F9074A694620468C
:1013F00000F0D4F900226946204600F0E8F902B076
:1014000010BD00BF00300E40801A060010B50B4C16
:10141000204600F0DDFD636823F004036360236869
:1014200023F0FF0343F0070323600549204600F043
:10143000B0FD636843F00203636010BD00500C40D0
:10144000A086010008B5002000F0A8FC044B40F67F
:101450000802C3F8842C0349002000F0B1FC08BD49
:101460000060084040420F0010B5074C204600F0D5
:10147000B9F84FF4E131204600F0DEF80323E360D1
:101480000123E36510BD00BF00100C40034B5B69F6
:1014900013F0200FFAD0014B1860704700100C4079
:1014A000054B5B6913F0010F03D0034B1868C0B202
:1014B00070474FF0FF30704700100C4008B5FFF741
:1014C000D3FF094800F098FCFFF768FFFFF786FF9D
:1014D000FFF79CFFFFF7B6FFFFF71EFFFFF73EFF8A
:1014E00000F07CF908BD00BF00400F4008B5C0B255
:1014F000FFF7CCFF08BD08B5FFF7D2FF08BD08B560
:10150000FFF7B2FF08BDFFFF00231C2B12D810B459
:10151000094A02EB830112F823404A78488802EB1B
:101520004412064941F8220001331C2BF0D95DF822
:10153000044B7047704700BF3880001A00600840B5
:1015400010B5174AD2F8203123F4704343F4104306
:10155000C2F82031D2F8243123F4704343F410430D
:10156000C2F8243101220F49062000F047FC002474
:101570004CB10B4B5A6822F00C025A605A6842F088
:1015800003025A6010BD084800EB840101238A78E9
:10159000497810F8240000F04DFB0134E8E700BF63
:1015A0000030044000CB280C3480001A08B5FFF747
:1015B000ABFFFFF7C5FF08BD094B984209D003F503
:1015C0008053984207D0A3F58023984205D000208D
:1015D000704702207047032070470120704700BF0A
:1015E00000100C4030B583B00446FFF7E5FF01233F
:1015F0001A4619460E4D35F8100000F061FB07231E
:10160000A3600023E3656360E3602362E3646365D2
:101610002365084B9C4206D00323E3601023A3629A
:10162000019B03B030BD00232361A3690193F3E75D
:10163000B480001A002008402DE9F04F83B00190DB
:101640008846FFF7B9FF324B33F8100000F070FB0B
:1016500006464FF0FF3701244FF0000BA246D94653
:101660002AE042424B1C17E00AB31746AB46A2469B
:1016700099460135AC421ED933093007A4FB00015D
:1016800004FB0311621908FB02F2002301F0DAFAED
:1016900002460B460028E4DB9742EAD3002BE8D051
:1016A000190CE6D1022BDFD8002DDDD0E1E717467B
:1016B000AB46A246994601341FB10F2C01D8002534
:1016C000D8E7B9F1000F1ED0019A1146D36843F054
:1016D0008003D3605FFA89F31360C9F30723536073
:1016E000D36823F08003D3604FEA0A13DBB20BF018
:1016F0000F0213438B6233090AFB03F3DA4409FB3D
:101700000AF9B3FBF9F9484603B0BDE8F08F00BF12
:10171000AC80001A034B984201D00320704704208C
:10172000704700BF00400E4070B50D4614461E467F
:10173000FFF7F0FF00F0FCFA55B104FB06F404EBF0
:1017400040006400B0FBF4F0C0B20138C0B270BD1C
:1017500004EB840304EB4304F1E7FFFF38B50546CF
:101760000C46FFF7D7FF01231A46194600F0A8FAE6
:101770000021E960084A2260217161710B2328462B
:10178000FFF7D2FF000240F400132079400400F478
:1017900060201843286038BD801A060070B50546E1
:1017A0000E46046824F46F2424F470640A600B79F4
:1017B000C3F10B03DBB24979FFF7B6FF44EA00201F
:1017C00033795B0403F4602303432B6070BD08B5D9
:1017D0000A710A68FFF7E2FF08BDFFFF08B569203C
:1017E00000F0A6FA014B186008BD00BF7C2B00106A
:1017F000F0B40B6813F0800F02D023F040030B60AD
:10180000074601253AE04B6903FB02F3B3FBF5F30E
:101810001CE01C46B0EB040C27D4674506D98D604C
:10182000771CCF600A618C61CB6167460132B2F5EB
:10183000807F1DDC0C6814F0400FE4D0731C02FAAA
:1018400003FC4B6903FB0CF3B3FBF5F3DFF838C083
:101850006345EBD9DFF834C0634509D814F0800F35
:10186000D7D1741C23FA04F4D4E7CCF1000CD4E7EC
:101870000136032E01DC0122D9E70135042D01DCFC
:101880000026F6E7F0BC7047FF5E4C0900D012134B
:10189000F0B599B005460C465C22002101A802F083
:1018A000E1F9802300936369059323798DF804306F
:1018B00069462846FFF79CFF069BAB4227D0EB1AF0
:1018C0002ED41E46109B23F040031093636915939A
:1018D00023798DF8443010A92846FFF789FF169B1D
:1018E000AB421FD0EB1A25D41F462B4B9D4223D968
:1018F0000E9BED1A33D4AE423BDCBE4231DC6D466A
:101900000FCD0FC495E80F0084E80F0006E06D4688
:101910000FCD0FC495E80F0084E80F0019B0F0BD9B
:101920005B42CEE710AD0FCD0FC495E80F0084E801
:101930000F00F3E75B42D7E74023089363690D93F9
:1019400008A92846FFF754FF0E9BAB42D0D108AD43
:101950000FCD0FC495E80F0084E80F00DEE76D425D
:10196000C9E710AD0FCD0FC495E80F0084E80F0054
:10197000D4E7AF4207DB08AD0FCD0FC495E80F00E9
:1019800084E80F00CAE710AD0FCD0FC495E80F0033
:1019900084E80F00C2E700BF80778E0630B40546AA
:1019A00000231C2000E001331C2818D103EB430264
:1019B00051000C4A0A441479844210D003EB4301CD
:1019C0004A0008498A5AAA42EDD803EB4302510063
:1019D000044A0A445288AA42E5D32046E4E730BCD0
:1019E000704700BFC880001A82B04FF47A73019329
:1019F0000D4A936923F0020192698A4201D00A4A92
:101A0000916123F00303094A1168094A914201D9FF
:101A100043F00403044A9361019B5A1E0192002B78
:101A2000FAD102B0704700BF000005403080001AB4
:101A3000FF2C31011230054B53F8200010F0010F3C
:101A400002D1C0F3046070471120704700000540C8
:101A500000F11202034B53F82220034B185C00EAFA
:101A60009200704700000540C080001A08B5102899
:101A70000AD8DFE800F0440B0D18210924272A2D8D
:101A800009093034383C400000203AE01E4838E074
:101A90001E4BD3F82C3103F00703042B01D01C4854
:101AA0002FE000202DE0194BD3F82C3103F0070371
:101AB000042B27D0164824E0164B186821E0164B5B
:101AC00018681EE0154B18681BE0144B586818E0A6
:101AD00000F068F815E0002100F09AF811E001210B
:101AE00000F096F80DE0022100F092F809E00321E1
:101AF00000F08EF805E0042100F08AF801E04FF4D0
:101B0000004008BD0648FCE7001BB7000030044059
:101B100040787D010480001A3080001A1C2B0010D0
:101B200080F0FA0238B505460C460879FFF79EFFAB
:101B30006061194B2B44194A934221D818B3802372
:101B400023600023A360E360B5FBF0F32361144A34
:101B5000954203D903FB00F0A84207D0214628464E
:101B6000FFF796FEA3688BB1013BA360236983B1A5
:101B7000E2680AB1013AE260013B2361002038BD0E
:101B80004FF0FF30FBE74FF0FF30F8E74FF0FF304A
:101B9000F5E74FF0FF30F2E7103A6BFF1005940BBA
:101BA000FF5E4C0930B583B0174D6C6CC4F3036015
:101BB000FFF75CFF154B1B6801932B6C13F0010FB3
:101BC00020D0C4F30743C4F30132C4F30121C4F3AA
:101BD0008015013301320DF1080C614411F8041C29
:101BE00014F0800F08D13DB94900B3FBF1F3B0FB0D
:101BF000F2F000FB03F003E0B0FBF2F003FB00F0B7
:101C000003B030BD0020FBE700000540BC80001A97
:101C100038B50C460846FFF70DFF05462046FFF78E
:101C200017FF04462846FFF721FF0134B0FBF4F00C
:101C300038BDFFFF30B400F11604A40004F1804465
:101C400004F5A02464681B2813D811291AD00E4D5E
:101C500025400AB145F400650BB145F0010545EAA0
:101C600001651630800000F1804000F5A02045603D
:101C700008E044F001041630800000F1804000F5D7
:101C8000A020446030BC7047FEF7FFE01B280CD852
:101C90001630800000F1804000F5A020406810F070
:101CA000010F04D1C0F30460704711207047112068
:101CB000704708B5FFF7EAFFFFF7D8FE08BDFFFF42
:101CC00071B901210AB141F00401022B0AD0B0F52B
:101CD000A17F0AD3A0F59170064B43F830107047EE
:101CE0000321EFE741F02001F1E72030024B43F8F8
:101CF000301070470020054000100540B0F5A17F6E
:101D000009D3094AA0F5917052F8303043F001032D
:101D100042F830307047054A203052F8303043F0F6
:101D2000010342F8303070470020054000100540A4
:101D300010B5B0F5A17F09D3A0F591730D4A52F803
:101D4000334014F0010F07D1002010BD00F1200333
:101D5000094A52F83340F4E7FFF720FEFFF7A9FFE6
:101D600014F0E00F03D10123B0FBF3F0EDE7022301
:101D7000FAE700BF0020054000100540012909D105
:101D8000C0EBC0008200044B13441A69137DDBB220
:101D9000042BFBD0704700BF0400001070B505464F
:101DA000064EC400221A930033449888FFF7A6FF1A
:101DB000641BA300F3586C229A6170BD04000010EC
:101DC0002DE9F0410C460B4EC5002B1A4FEA830853
:101DD00006EB08039888FFF7ABFFB0FBF4F056F86A
:101DE000083042081A6156F808301A69801A58619A
:101DF000BDE8F081040000107047FFFF70B58AB0A5
:101E000005460E4614464CF250330993062818D066
:101E10000023012229460420FFF70CFF4A4A536C95
:101E200043F0010353648DF8085001A93046FFF7D1
:101E300079FE464B9E4216D9019B13F0400F03D00A
:101E4000FEE7FFF7D1FDE3E713F0800F05D023F0A5
:101E5000800301930025012607E0049B01330493CE
:101E60000125002601E000252E469DF80820019B53
:101E700043EA0263059A43EA0243039A43EA0233C0
:101E8000049A43EA022343F400632F4A53642E4B1F
:101E90001B6C13F0010FFAD000230122092104204A
:101EA000FFF7C8FE06B34CF250330993099B5A1E44
:101EB0000992002BFAD1019B43F0800301939DF816
:101EC000082043EA0263059A43EA0243039A43EA7D
:101ED0000233049A43EA022343F400631A4A536428
:101EE000002C2ED10AB070BD002DF9D04CF2503329
:101EF0000993099B5A1E0992002BFAD1049B5A1E82
:101F000004929DF80810019B43EA0163059943EA96
:101F10000143039943EA013343EA022343F4006394
:101F2000094A5364DCE70A4800EB8401CB788A78DD
:101F3000497810F82400FFF77DFE0134112CF2D906
:101F4000D0E70024FAE700BF0000054080778E0646
:101F50003481001A034B984201D083207047A5209A
:101F6000704700BF00500C40044B984202D040F232
:101F7000022070474FF4F170704700BF00500C40D2
:101F8000036823F47F43090289B2194301600261A7
:101F9000704770B506460D46FFF7E6FFFFF7C8FE2F
:101FA00002224FF0FF33002100E02146AB420BD963
:101FB0004C1C02FB04F3B0FBF3F39D42F6D2FF2C62
:101FC000F3D902320021F1E73046FFF7D9FF70BDA7
:101FD00010B50446FFF7BEFFFFF790FE2046FFF75F
:101FE000C3FFFFF78BFE636823F00403636023687D
:101FF00023F0FF0343F00703236002492046FFF765
:10200000C8FF10BDA086010008B50B4A0B4B9A60B3
:1020100003F50C731B6903F47F63202B04D0FFF7D7
:10202000C5FAFFF74BFA08BD044AD2F8883043F4EA
:102030007003C2F88830F2E70000001A00ED00E0FB
:10204000044B1860044A136843F001031360012035
:10205000704700BF3C000010001000E030B40B4D92
:1020600000EB80002C182856087094F901101170AC
:1020700094F902201A7094F90320029B1A7094F9C3
:102080000420039B1A7030BC704700BF7C81001A8B
:1020900010F1020F00F0C780B0F1FF3F00F0C580E3
:1020A00070B584B00C4600238DF80F308DF80E30DB
:1020B0008DF80D308DF80C308DF80B300DF10B03D1
:1020C000019303AB00930DF10D030DF10E020DF121
:1020D0000F01FFF7C3FF052C00F2A980DFE804F031
:1020E0000981274563035348FFF786FE012004B0AA
:1020F00070BD9DF80F109DF80E309DF80D2042F038
:10210000D00203EB41134C4941F823209DF80C30D9
:102110009DF90B20012000FA02F1464C03F5006303
:1021200054F8232022EA010244F82320DFE79DF837
:102130000F109DF80E309DF80D2042F0C00203EB09
:1021400041133D4941F823209DF80C309DF90B20A7
:10215000012000FA02F1374C03F5006354F8232004
:1021600022EA010244F82320C1E79DF80F109DF8F0
:102170000E309DF80D2042F0D80203EB41132E499A
:1021800041F823209DF80C309DF90B20012000FA26
:1021900002F1284C03F5006354F8232022EA0102DF
:1021A00044F82320A3E79DF80F109DF80E309DF80A
:1021B0000D2042F0C80203EB41131F4941F82320D0
:1021C0009DF80C309DF90B20012000FA02F1194C0A
:1021D00003F5006354F8232022EA010244F8232087
:1021E00085E79DF80F109DF80E309DF80D2042F008
:1021F000D00203EB4113104941F823209DF80C4015
:102200009DF90B20012000FA02F10A4B04F500654C
:1022100053F82560314343F82510D2B203EB441341
:102220000021995463E70020704700207047002088
:102230005DE700BF00400F400060084010F1020F52
:102240002DD0B0F1FF3F2CD010B584B00C46002348
:102250008DF80F308DF80E308DF80D308DF80C3074
:102260008DF80B300DF10B03019303AB00930DF1CF
:102270000D030DF10E020DF10F01FFF7EFFE9DF8BA
:102280000C309DF80B20211C18BF01215B0103F1CC
:10229000402303F570239954012004B010BD0020A1
:1022A00070470020704710F1020F2CD0B0F1FF3FB3
:1022B0002BD000B585B000238DF80F308DF80E308F
:1022C0008DF80D308DF80C308DF80B300DF10B03BF
:1022D000019303AB00930DF10D030DF10E020DF10F
:1022E0000F01FFF7BBFE9DF90C309DF80B205B0141
:1022F00003F1402303F57023985C003018BF0120E0
:1023000005B05DF804FB0120704700207047FFFF17
:1023100008B5044B1B681B68DB68034A10689847C4
:1023200008BD00BF802B0010242B001008B5FFF75C
:1023300055FA184B1868FFF783FE05210020FFF7B8
:10234000A7FE00212420FFF7A3FE00212520FFF790
:102350009FFE00212620FFF79BFE00212720FFF78C
:1023600097FE01212820FFF793FE01212920FFF786
:102370008FFE01212A20FFF78BFE01212B20FFF782
:1023800087FE01212C20FFF783FE01212D20FFF77E
:102390007FFE08BD7C2B001081F0004102E000BFF1
:1023A00083F0004330B54FEA41044FEA430594EA15
:1023B000050F08BF90EA020F1FBF54EA000C55EA50
:1023C000020C7FEA645C7FEA655C00F0E2804FEA21
:1023D0005454D4EB5555B8BF6D420CDD2C4480EA03
:1023E000020281EA030382EA000083EA010180EA33
:1023F000020281EA0303362D88BF30BD11F0004F81
:102400004FEA01314FF4801C4CEA113102D04042B6
:1024100061EB410113F0004F4FEA03334CEA1333F1
:1024200002D0524263EB430394EA050F00F0A78009
:10243000A4F10104D5F1200E0DDB02FA0EFC22FA04
:1024400005F2801841F1000103FA0EF2801843FAF8
:1024500005F359410EE0A5F120050EF1200E012AE9
:1024600003FA0EFC28BF4CF0020C43FA05F3C01827
:1024700051EBE37101F0004507D54FF0000EDCF1A0
:10248000000C7EEB00006EEB0101B1F5801F1BD349
:10249000B1F5001F0CD349085FEA30004FEA3C0C4D
:1024A00004F101044FEA445212F5800F80F09A8043
:1024B000BCF1004F08BF5FEA500C50F1000041EB47
:1024C000045141EA050130BD5FEA4C0C404141EB4B
:1024D000010111F4801FA4F10104E9D191F0000F72
:1024E00004BF01460020B1FA81F308BF2033A3F1F5
:1024F0000B03B3F120020CDA0C3208DD02F1140CEC
:10250000C2F10C0201FA0CF021FA02F10CE002F126
:102510001402D8BFC2F1200C01FA02F120FA0CFC1F
:10252000DCBF41EA0C019040E41AA2BF01EB045168
:10253000294330BD6FEA04041F3C1CDA0C340EDC66
:1025400004F11404C4F1200220FA04F001FA02F3A9
:1025500040EA030021FA04F345EA030130BDC4F167
:102560000C04C4F1200220FA02F001FA04F340EA5C
:102570000300294630BD21FA04F0294630BD94F00D
:10258000000F83F4801306BF81F480110134013DF4
:102590004EE77FEA645C18BF7FEA655C29D094EA65
:1025A000050F08BF90EA020F05D054EA000C04BFE3
:1025B0001946104630BD91EA030F1EBF00210020CE
:1025C00030BD5FEA545C05D14000494128BF41F06D
:1025D000004130BD14F580043CBF01F5801130BDD1
:1025E00001F0004545F0FE4141F470014FF000005C
:1025F00030BD7FEA645C1ABF194610467FEA655C0D
:102600001CBF0B46024650EA013406BF52EA0335AE
:1026100091EA030F41F4002130BD00BF90F0000F9C
:1026200004BF0021704730B54FF4806404F13204D8
:102630004FF000054FF0000150E700BF90F0000F91
:1026400004BF0021704730B54FF4806404F13204B8
:1026500010F0004548BF40424FF000013EE700BF88
:1026600042004FEAE2014FEA31014FEA02701FBF18
:1026700012F07F4393F07F4F81F06051704732F04A
:102680007F4208BF704793F07F4F04BF41F40021A1
:10269000704730B54FF4607401F0004521F00041FF
:1026A0001CE700BF50EA010208BF704730B54FF089
:1026B00000050AE050EA010208BF704730B511F08A
:1026C000004502D5404261EB41014FF4806404F1C2
:1026D00032045FEA915C3FF4D8AE4FF003025FEA48
:1026E000DC0C18BF03325FEADC0C18BF033202EBCC
:1026F000DC02C2F1200300FA03FC20FA02F001FA26
:1027000003FE40EA0E0021FA02F11444BDE600BFC8
:1027100070B54FF0FF0C4CF4E06C1CEA11541DBF77
:102720001CEA135594EA0C0F95EA0C0F00F0DEF842
:102730002C4481EA030621EA4C5123EA4C5350EA27
:10274000013518BF52EA033541F4801143F4801378
:1027500038D0A0FB02CE4FF00005E1FB02E506F009
:102760000042E0FB03E54FF00006E1FB03569CF05E
:10277000000F18BF4EF0010EA4F1FF04B6F5007F64
:1027800064F5407404D25FEA4E0E6D4146EB0606D6
:1027900042EAC62141EA55514FEAC52040EA5E505F
:1027A0004FEACE2EB4F1FD0C88BFBCF5E06F1ED809
:1027B000BEF1004F08BF5FEA500E50F1000041EB40
:1027C000045170BD06F0004646EA010140EA0200ED
:1027D00081EA0301B4EB5C04C2BFD4EB0C0541EA0F
:1027E000045170BD41F480114FF0000E013C00F324
:1027F000AB8014F1360FDEBF002001F0004170BD48
:10280000C4F10004203C35DA0C341BDC04F1140460
:10281000C4F1200500FA05F320FA04F001FA05F2EC
:1028200040EA020001F0004221F0004110EBD370B9
:1028300021FA04F642EB06015EEA430E08BF20EAE5
:10284000D37070BDC4F10C04C4F1200500FA04F388
:1028500020FA05F001FA04F240EA020001F000411A
:1028600010EBD37041F100015EEA430E08BF20EA8D
:10287000D37070BDC4F1200500FA05F24EEA020ED5
:1028800020FA04F301FA05F243EA020321FA04F004
:1028900001F0004121FA04F220EA020000EBD370BB
:1028A0005EEA430E08BF20EAD37070BD94F0000FBB
:1028B0000FD101F00046400041EB010111F4801FEF
:1028C00008BF013CF7D041EA060195F0000F18BFA0
:1028D000704703F00046520043EB030313F4801FDC
:1028E00008BF013DF7D043EA0603704794EA0C0F96
:1028F0000CEA135518BF95EA0C0F0CD050EA4106AC
:1029000018BF52EA4306D1D181EA030101F0004128
:102910004FF0000070BD50EA410606BF1046194650
:1029200052EA430619D094EA0C0F02D150EA01365C
:1029300013D195EA0C0F05D152EA03361CBF10469D
:1029400019460AD181EA030101F0004141F0FE413C
:1029500041F470014FF0000070BD41F0FE4141F4C0
:10296000780170BD70B54FF0FF0C4CF4E06C1CEAC0
:1029700011541DBF1CEA135594EA0C0F95EA0C0F75
:1029800000F0A7F8A4EB050481EA030E52EA033530
:102990004FEA013100F088804FEA03334FF0805551
:1029A00045EA131343EA12634FEA022245EA11157E
:1029B00045EA10654FEA00260EF000419D4208BF2F
:1029C000964244F1FD0404F5407402D25B084FEADC
:1029D0003202B61A65EB03055B084FEA32024FF488
:1029E00080104FF4002CB6EB020E75EB030E22BFE5
:1029F000B61A754640EA0C005B084FEA3202B6EBA5
:102A0000020E75EB030E22BFB61A754640EA5C0053
:102A10005B084FEA3202B6EB020E75EB030E22BFE3
:102A2000B61A754640EA9C005B084FEA3202B6EBE4
:102A3000020E75EB030E22BFB61A754640EADC00A3
:102A400055EA060E18D04FEA051545EA16754FEA05
:102A500006164FEAC30343EA52734FEAC2025FEA23
:102A60001C1CC0D111F4801F0BD141EA00014FF0B2
:102A700000004FF0004CB6E711F4801F04BF014383
:102A80000020B4F1FD0C88BFBCF5E06F3FF6AFAE9F
:102A9000B5EB030C04BFB6EB020C5FEA500C50F12F
:102AA000000041EB045170BD0EF0004E4EEA1131B2
:102AB00014EB5C04C2BFD4EB0C0541EA045170BDB9
:102AC00041F480114FF0000E013C90E645EA060EFD
:102AD0008DE60CEA135594EA0C0F08BF95EA0C0F2B
:102AE0003FF43BAF94EA0C0F0AD150EA01347FF473
:102AF00034AF95EA0C0F7FF425AF104619462CE74A
:102B000095EA0C0F06D152EA03353FF4FDAE1046AC
:102B1000194622E750EA410618BF52EA43067FF4FD
:102B2000C5AE50EA41047FF40DAF52EA43057FF48D
:102B3000EBAE12E74FF0FF3C06E000BF4FF0010C98
:102B400002E000BF4FF0010C4DF804CD4FEA410CFC
:102B50007FEA6C5C4FEA430C18BF7FEA6C5C1BD0C9
:102B600001B050EA410C0CBF52EA430C91EA030F4A
:102B700002BF90EA020F0020704710F1000F91EAA7
:102B8000030F58BF994208BF90422CBFD8176FEA75
:102B9000E37040F0010070474FEA410C7FEA6C5C43
:102BA00002D150EA013C07D14FEA430C7FEA6C5C4A
:102BB000D6D152EA033CD3D05DF8040B704700BF76
:102BC0008446104662468C461946634600E000BFC4
:102BD00001B5FFF7B7FF002848BF10F1000F01BD96
:102BE0004DF808EDFFF7F4FF0CBF012000205DF861
:102BF00008FB00BF4DF808EDFFF7EAFF34BF0120E6
:102C000000205DF808FB00BF4DF808EDFFF7E0FF7E
:102C100094BF012000205DF808FB00BF4DF808EDCF
:102C2000FFF7CEFF94BF012000205DF808FB00BF36
:102C30004DF808EDFFF7C4FF34BF012000205DF818
:102C400008FB00BF53B94AB9002908BF00281CBFC0
:102C50004FF0FF314FF0FF3000F074B9ADF1080CC8
:102C60006DE904CE00F006F8DDF804E0DDE90223AA
:102C700004B070472DE9F047089E04468846002BB3
:102C800040F085808A42154648D9B2FA82F24AB1AC
:102C9000C2F1200701FA02F320FA07F7954047EA4C
:102CA000030894404FEA154E230CB8FBFEF71FFAB9
:102CB00085FC0EFB178843EA084307FB0CF1994299
:102CC00009D9EB1807F1FF3080F0E380994240F218
:102CD000E080023F2B445B1AA4B2B3FBFEF00EFB74
:102CE000103344EA034400FB0CFCA44509D92C1919
:102CF00000F1FF3380F0CB80A44540F2C880023859
:102D00002C4440EA0740A4EB0C0400271EB1D44039
:102D10000023C6E900433946BDE8F087002A53D0B6
:102D2000B2FA82F2002A40F0B680491B4FEA154EF3
:102D30001FFA85F80127B1FBFEFC230C0EFB1C11CA
:102D400043EA014308FB0CF1994207D9EB180CF157
:102D5000FF3002D2994200F2EC808446591AA3B2A5
:102D6000B1FBFEF00EFB101443EA044408FB00F82C
:102D7000A04507D92C1900F1FF3302D2A04500F27B
:102D8000DC801846A4EB080440EA0C40BEE78B4206
:102D900008D9002E78D00027C6E900013846394608
:102DA000BDE8F087B3FA83F77FB98B4202D3824242
:102DB00000F2BD80841A61EB030301209846002EC7
:102DC000A9D0C6E90048A6E7FFDEC7F12005BB4051
:102DD00022FA05FC4CEA030C01FA07F420FA05F884
:102DE00021FA05F34FEA1C4E48EA0404B3FBFEF94E
:102DF000210C0EFB19331FFA8CF841EA034309FB3F
:102E000008FA9A4502FA07F200FA07F10BD91CEB0F
:102E1000030309F1FF3080F088809A4540F28580F5
:102E2000A9F102096344A3EB0A03A4B2B3FBFEF0C9
:102E30000EFB103344EA034400FB08F8A04508D910
:102E40001CEB040400F1FF336BD2A04569D90238B2
:102E5000644440EA0940A4EB0804A0FB02894C4505
:102E6000C6464B4654D351D0002E69D0B1EB0E026A
:102E700064EB030404FA05F522FA07F3FC401D4352
:102E8000C6E90054002746E73746304643E7184670
:102E900037E707461FE7C2F1200320FA03F7954002
:102EA00001FA02F021FA03F34FEA154E3843010C00
:102EB000B3FBFEF71FFA85F80EFB173341EA034117
:102EC00007FB08F38B4204FA02F407D9691807F1EB
:102ED000FF3C28D28B4226D9023F2944CB1A81B22B
:102EE000B3FBFEF00EFB103341EA034100FB08F395
:102EF0008B4207D9691800F1FF3C10D28B420ED9E2
:102F000002382944C91A40EA074714E74145ABD2C1
:102F1000B8EB020E69EB0C0201381346A4E76046D9
:102F2000F0E7184695E76746D8E781467BE73846DD
:102F300045E7ACF1020C2B4410E702382C4421E7A2
:102F40003746E8E6704700BF70B500294AD005460D
:102F50000C4610B1836B002B47D0636EB4F90C2084
:102F6000D80732D5002A3DD02146284600F054F833
:102F7000E36A064633B1E169284698470028B8BF9E
:102F80004FF0FF36A3891A063CD4216B41B104F1FE
:102F90004003994202D0284600F0C6F9002323637B
:102FA000616C21B1284600F0BFF90023636400F092
:102FB0005FF9636E0022DB07A28128D5A06D00F0C7
:102FC000F9FA00F05BF9304670BD9105CCD4A06DE4
:102FD00000F0F2FAB4F90C30002BC5D1666E16F091
:102FE00001060AD00026304670BD00F017F9636E66
:102FF000B4F90C20D807B5D4E7E7A06D00F0DEFAED
:10300000304670BD2169284600F08EF9BDE7A06DFD
:1030100000F0D4FAD2E700BFB1F90C309AB22DE932
:10302000F0410C461107804648D4626843F40063BF
:10303000002AA3815DDDA56A002D57D000229BB236
:10304000D8F80060E169C8F8002013F4805254D128
:1030500001234046A847431C024665D0A389A56AC0
:10306000E1695F0705D56068236B121A0BB1E36B4A
:10307000D21A00234046A847451C48D1D8F8002062
:10308000B4F90C30002A5CD01D2A01D0162A64D174
:1030900022690021C4E9002123F40063A381216B8C
:1030A000C8F8006011B304F14003994202D04046D1
:1030B00000F03AF900202063BDE8F0812669AEB146
:1030C0002568266091070CBF63690023AD1BA360D0
:1030D0000AE02B463246676AE1694046B847002855
:1030E000A5EB000506440ADD002DF2DC0020BDE85A
:1030F000F081E26B002A9EDCF8E7226DB1E7A3893C
:1031000043F04003A3814FF0FF30BDE8F081B4F9F4
:103110000C302269226023F4006300226260DA042A
:10312000A381BCD52065BAE7D8F80030002B95D034
:103130001D2B0FD0162B0DD0A38943F04003A38184
:10314000D5E723F400632169A381DB04C4E90012FD
:10315000A5D5E7E7C8F80060C8E743F04003A381BE
:10316000C5E700BF38B50D46044608B1836BA3B16F
:10317000B5F90C00B8B16B6EDB0701D4810515D52C
:1031800020462946FFF748FF6B6EDA07044602D453
:10319000AB899B050ED5204638BD00F03FF8B5F948
:1031A0000C000028E7D10446204638BDA86D00F089
:1031B00003FAE5E7A86D00F001FA204638BD00BF2C
:1031C00010B5002304468181C281C0E900338360C9
:1031D0004366C0E904338361194608225C3000F07D
:1031E00041FD07480749084A084BE362C4E9074024
:1031F000C4E9091204F15800BDE8104000F0D8B944
:10320000F13D001A153E001A553E001A753E001A8F
:10321000014900F07FB900BF492F001A10B50446DC
:10322000114800F0C9F9A26BC2B904F53B730F480D
:10323000C4F8E0220321C4E9B913E0630421606803
:10324000FFF7BEFF01220921A068FFF7B9FF0222A4
:103250001221E068FFF7B4FF0123A3630248BDE831
:10326000104000F0ABB900BF902B00101132001AD3
:10327000014800F0A1B900BFA42B0010014800F0E4
:103280009DB900BFA42B0010F8B5244F0C4606468C
:1032900000F038FDBB685D68C4F57E610F3125F034
:1032A0000305294421F47F6121F00F01A1F5805429
:1032B000B4F5805F07DB00213046FDF701FABB68FB
:1032C0002B44984204D0304600F022FD0020F8BD87
:1032D00061423046FDF7F4F901300DD0104BBA6869
:1032E00019682D1B45F001053046091B5560196012
:1032F00000F00EFD0120F8BD00213046FDF7E0F999
:10330000BA68831A0F2BDEDD064C0549246843F0AA
:103310000103001B53600860D5E700BF7004001074
:10332000282B00107808001000295DD0F8B50F4652
:10333000064600F0E7FC57F804CC734C2CF0010370
:10334000A7F10800C218A1685568914225F003054D
:103350007FD01CF0010F556002EB050133D157F807
:1033600008EC4968A0EB0E0004F1080C876867457B
:10337000734401F0010160D0D0F80CE0C7F80CE014
:10338000CEF80870002900F0898043F00101416007
:103390001360B3F5007F30D2DB08591C65689A10C2
:1033A000012393402B4304EBC10254F83150636076
:1033B000083AC0E9025244F83100E8603046BDE8FE
:1033C000F84000F0A5BC4968C9070ED42B4404F1AD
:1033D000080C9168614543F0010567D0D268CA6066
:1033E00091604560C350D4E7704743F00101B3F5E5
:1033F000007F47F8041C1360CED35A0A042A42D82F
:103400009A0902F13907FF0002F13801E519E25982
:10341000083D954251D0516821F00301994202D9EB
:1034200092689542F7D1D568C0E90225A860D060BE
:103430003046BDE8F84000F06BBC00295ED1D2E90F
:1034400002122B4443F00104CA6091604460C350EF
:10345000B4E71CF0010F2B4407D157F8082C801A51
:103460001344D0E90212CA609160284A126843F0FE
:1034700001019A424160A060A0D8254B30461968EE
:10348000FFF702FF9AE7142A0AD9542A1DD81A0B0B
:1034900002F16F07FF0002F16E01B7E72B4498E7D6
:1034A00002F15C07FF0002F15B01AFE7C4E9040031
:1034B000C0E902CC4560C35080E7636889100127EA
:1034C00007FA01F119436160AEE7B2F5AA7F06D8A9
:1034D000DA0B02F17807FF0002F1770196E740F27C
:1034E00054518A4206D89A0C02F17D07FF0002F17E
:1034F0007C018BE74FF47E777E2187E743F0010163
:10350000416013605AE700BF700400107C0800108F
:10351000582B00102DE9F84310F538771FD0884656
:1035200006464FF00009D7E90154013D11D4A389A3
:10353000012B05F1FF3508D9B4F90E3001332146CE
:10354000304602D0C04749EA00096B1C04F1680408
:10355000EDD13F68002FE6D14846BDE8F883B94673
:103560004846BDE8F88300BF70B50D4E0D4D761B83
:10357000B61006D00024013455F8043B9847A64203
:10358000F9D1094E094D761BFDF745F8B61006D066
:103590000024013455F8043B9847A642F9D170BD88
:1035A000EC84001AEC84001AF084001AEC84001AEF
:1035B000704700BF704700BF704700BF704700BF33
:1035C0002DE9F04F01F10B05162D83B0064623D8E7
:1035D000102900F2B98000F095FB10251823022075
:1035E000BA4F3B44A3F108025C68944200F0B980F2
:1035F000636823F003032344D4E902515A68E96065
:1036000042F0010230468D605A6000F081FB0834C0
:10361000204603B0BDE8F08F35F0070500F1948037
:10362000A94200F2918000F06DFBB5F5FC7FC0F07F
:10363000A2816B0A00F08F80042B00F27881AB0925
:1036400003F1390003F1380CC300A04F3B44A3F150
:1036500008015C68A14206D10CE0002A80F22781B3
:10366000E468A14206D0636823F003035A1B0F2AC3
:10367000F3DD60463C69DFF868C264457CD063686E
:1036800023F003035A1B0F2A00F38381002AC7E9A2
:1036900004CC80F27481B3F5007F80F02581DB08D3
:1036A000591C7A6857F83180C4F808804FF0010E31
:1036B0009B100EFA03F307EBC10E1343AEF10802A1
:1036C000E2607B6047F83140C8F80C40821001246A
:1036D00094409C4256D81C4206D120F0030064005E
:1036E0001C4200F10400FAD007EBC009CE46804628
:1036F000DEF80C309E4507D125E1002A80F22C81AE
:10370000DB689E4500F01F81596821F003014A1BC8
:103710000F2AF2DDD3E9028E5C1945F001055D60E8
:1037200042F00105C8F80CE03046CEF80880C7E941
:103730000444C4E902CC65605A50009300F0E8FAF2
:10374000009B03F1080402E00C23336000242046B0
:1037500003B0BDE8F08F4FF4007340204FF03F0CF2
:1037600073E7DC68A34208BF02307FF441AF3C69D5
:10377000DFF86CC1644582D17B68821001249440DB
:103780009C42A8D9BC68636823F00308A84503D30A
:10379000A8EB05030F2B7ADCDFF848914C4BD9F8E6
:1037A00000201B6801322B4404EB080A00F03C8126
:1037B00003F580530F3323F47F6B2BF00F0B594627
:1037C0003046FCF77DFF411C024600F0FC8082453C
:1037D00000F2F7803F4B186858441860014600F02B
:1037E0005781D9F80000019301301BBFA2EB0A0AF0
:1037F0005144C9F80020196012F0070A00F0208136
:10380000CAF108010A44CAF5805193440831A1EB7A
:103810000B01C1F30B09494630460092FCF750FFFB
:10382000421CDDE9002300F05881801A00EB090BEF
:103830001868BA604BF001014844BC4251601860FE
:1038400000F03281B8F10F0F40F230816168A8F1C9
:103850000C0C2CF0070C01F0010104EB0C0E41EAFA
:103860000C014FF00508BCF10F0F6160CEE9018833
:1038700000F23B8151681446174B1A68824238BFE8
:103880001860164B1A68824238BF18609DE06219B2
:1038900043F0010345F0010565603046BA605360AE
:1038A00000F036FA0834204603B0BDE8F08F234418
:1038B000E1685A68A56842F00102E96030468D600F
:1038C0005A6000F025FA083441E700BF7004001088
:1038D000582B0010282B0010502B0010542B0010D8
:1038E00078040010780800105A0A042A63D9142AB0
:1038F00000F2B78002F15C01C9005B3207EB010EF8
:103900007958AEF1080E8E4500F091804A6822F099
:1039100003029A4202D989688E45F7D1D1F80CE0AA
:103920007B68C4E9021ECEF80840CC60CEE6142BBA
:1039300059D9542B00F29D802B0B03F16F0003F13A
:103940006E0CC30081E608F1010818F0030F0EF1B8
:10395000080E7FF4CDAE51E019441C464A68DB687E
:1039600054F8085F42F001024A603046EB609D6007
:1039700000F0CEF9EBE6E80805F1080330E6234451
:1039800030465A6842F001025A60083400F0C0F92B
:10399000DDE6611945F0010E42F00105C4F804E0CE
:1039A0003046C7E90411C1E902CC4D60E25000F095
:1039B000AFF90834CBE69A0902F13901C90038326F
:1039C0009CE7BC425FD0BC68616821F0030BAB454B
:1039D000ABEB050302D30F2B3FF759AF304600F096
:1039E00097F90024B3E603F15C0003F15B0CC3001C
:1039F0002BE659F808394B4540F0968010F0030F3C
:103A000000F1FF30F5D17B6823EA04037B6064009A
:103A10009C423FF6B7AE1CB9B4E6640008F1040856
:103A20001C42FAD040465FE603F1100BC7E67B6804
:103A300092104FF0010808FA02F213437B6070E71E
:103A400002EB0B004042C0F30B094946304600929E
:103A5000FCF736FE431CDDE900237FF4E6AED146D9
:103A6000E6E6542A25D81A0B02F16F01C9006E321E
:103A700044E7B3F5AA7F25D8EB0B03F1780003F1F7
:103A8000770CC300E1E5294B196859441960A8E691
:103A9000CAF30B0CBCF1000F7FF4A3AEC344BC68A7
:103AA0004BF001016160E7E61446E5E6012353604F
:103AB00094E7B2F5AA7F23D8DA0B02F17801C900A6
:103AC00077321BE740F25452934223D8AB0C03F1F8
:103AD0007D0003F17C0CC300B7E5AAF1080AD344CA
:103AE000ABEB020B4FF00009A2E604F108013046EF
:103AF0000093FFF719FCBC68009B61681868BBE67F
:103B000040F254518A420BD89A0C02F17D01C9004F
:103B10007C32F3E64FF47E737F204FF07E0C94E509
:103B20004FF47E717E22E9E67B6870E7282B001057
:103B3000844641EA000313F003036DD1403A41D3B8
:103B400051F8043B40F8043B51F8043B40F8043B77
:103B500051F8043B40F8043B51F8043B40F8043B67
:103B600051F8043B40F8043B51F8043B40F8043B57
:103B700051F8043B40F8043B51F8043B40F8043B47
:103B800051F8043B40F8043B51F8043B40F8043B37
:103B900051F8043B40F8043B51F8043B40F8043B27
:103BA00051F8043B40F8043B51F8043B40F8043B17
:103BB00051F8043B40F8043B51F8043B40F8043B07
:103BC000403ABDD2303211D351F8043B40F8043BA7
:103BD00051F8043B40F8043B51F8043B40F8043BE7
:103BE00051F8043B40F8043B103AEDD20C3205D3B7
:103BF00051F8043B40F8043B043AF9D2043208D0AF
:103C0000D2071CBF11F8013B00F8013B01D30B8820
:103C100003806046704700BF082A13D38B078DD0FE
:103C200010F003038AD0C3F10403D21ADB071CBFD0
:103C300011F8013B00F8013B80D331F8023B20F83A
:103C4000023B7BE7043AD9D3013A11F8013B00F873
:103C5000013BF9D20B7803704B7843708B788370FB
:103C600060467047F0B4860746D0541E002A3CD008
:103C7000CAB2034602E014F1FF3436D303F8012B35
:103C80009D07F8D1032C29D9CDB245EA05250F2C83
:103C900045EA054533D9A4F11006360903F120079A
:103CA00007EB061703F1100242E9045542E90255F9
:103CB0001032BA42F8D1721C14F00C0F03EB02124E
:103CC00004F00F0613D0331F23F00303043313440F
:103CD00042F8045B9342FBD106F003042CB1C9B255
:103CE0001C4403F8011B9C42FBD1F0BC70473446D6
:103CF0001346002CF3D1F8E714460346C2E71A46F0
:103D00002646E0E70148FFF757BC00BF942B0010A0
:103D10000148FFF753BC00BF942B00100FB400B54F
:103D2000074983B004AB086853F8042B81680193FA
:103D300000F016F903B05DF804EB04B0704700BF63
:103D40004000001070B5054688B008460C4600F0EB
:103D500097F8224AAB6B04940126441C04A90692EE
:103D6000022203940590AC680796CDE901121BB3BB
:103D7000616EB4F90C30CE079AB201D4900525D506
:103D8000910406D4626E43F4005322F40052A381DE
:103D90006266284601AA214602F0F4FE636E0028FE
:103DA00014BF4FF0FF350A25DA0702D4A3899B051B
:103DB00006D5284608B070BD2846FFF72FFAD7E78A
:103DC000A06DFFF7FBFB284608B070BDA06DFFF7A4
:103DD000F3FBB4F90C309AB2D2E700BF6883001A43
:103DE000024B01461868FFF7ADBF00BF400000104E
:103DF00010B50C46B1F90E10FCF726FC002803DBC9
:103E0000236D0344236510BDA38923F48053A3814C
:103E100010BD00BF2DE9F0411646B1F90C201F4638
:103E2000D3050C460546B1F90E1009D422F4805290
:103E3000A2813B4632462846BDE8F041FCF72BBC48
:103E400000220223FCF7FBFBB4F90C20B4F90E109E
:103E5000ECE700BF10B50C46B1F90E10FCF7EFFB14
:103E6000A389421C0EBF23F4805343F48053206582
:103E7000A38110BDB1F90E10FCF7CEBBFFFFFFFF11
:103E800090F800F06DE9024520F007016FF0000C9A
:103E900010F0070491F820F040F049804FF0000442
:103EA0006FF00700D1E9002391F840F000F108001D
:103EB00082FA4CF2A4FA8CF283FA4CF3A2FA8CF355
:103EC0004BBBD1E9022382FA4CF200F10800A4FABC
:103ED0008CF283FA4CF3A2FA8CF3E3B9D1E9042310
:103EE00082FA4CF200F10800A4FA8CF283FA4CF347
:103EF000A2FA8CF37BB9D1E9062301F1200182FA01
:103F00004CF200F10800A4FA8CF283FA4CF3A2FA06
:103F10008CF3002BC6D0002A04BF04301A4612BA14
:103F2000B2FA82F2FDE8024500EBD2007047D1E917
:103F3000002304F00305C4F100004FEAC50514F0A6
:103F4000040F91F840F00CFA05F562EA05021CBF77
:103F500063EA050362464FF00004A9E7FFFFFFFF95
:103F60002DE9F04FD5B01C46894617460546059009
:103F700002F08CFF036815931846FFF781FF089441
:103F800013901DB1AB6B002B00F01184D9F86410B5
:103F9000B9F90C20CD0793B202D4980540F15487AB
:103FA00099040AD4D9F8641042F4005321F4005162
:103FB000A9F80C30C9F864109BB21A0740F1BF8011
:103FC000D9F81020002A00F0BA8003F01A020A2A59
:103FD00000F0C38000239FED9C7B1293CDE9293331
:103FE00014931693CDE91833179304932BAB2893AE
:103FF0009B463B78CDF81C908DED107B002B00F09C
:104000006782252B01F0AB803D4603E0252B00F0B5
:10401000BB8025466B786C1C002BF7D1E61B00F0AB
:104020005782DDE9293201333244072BCBF8007087
:10403000CBF80460CDE9293200F3AA800BF1080B1C
:10404000049A6B7832440492002B00F041820023E2
:1040500094F8018006938DF88330029304F1010AED
:104060004FF0FF392B2620210AF1010AA8F1200385
:104070005A2B00F2A183DFE813F082029F039F0313
:104080007B029F039F039F0301039F039F03F6028D
:10409000DF009F03C4002B039F03240396009600B8
:1040A00096009600960096009600960096009F0354
:1040B0009F039F039F039F039F039F0345039F034A
:1040C000A80162014503450345039F039F039F0326
:1040D0009F035B019F039F034E019F039F039F0369
:1040E00023019F0315019F039F03CB009F039F03A1
:1040F0009F039F039F039F039F039F0345039F030A
:10410000A801EF004503450345037002EF005B0083
:104110009F03EB029F03D102BD028C025B009F0351
:1041200023015F0087039F039F03A5009F035F0098
:10413000029B43F0200302939AF8008094E74946DB
:10414000059801F0F9FC002841F08183B9F80C30A2
:1041500003F01A020A2A7FF43DAFB9F90E20002AB3
:10416000FFF638AFD9F86420D60702D49D0541F197
:10417000908123463A464946059801F09BFC0490FD
:10418000049855B0BDE8F08FE61B3FF460AF48E7F8
:1041900028AA0799059803F01FFD002841F02784FD
:1041A0000DF1AC0B4CE7A8F1300300221AF8018B9B
:1041B00002EB820203EB4202A8F13003092BF5D98E
:1041C000069253E7224B1493029B9F0625D5089C29
:1041D000073424F00703F3E802450893029AD10755
:1041E0000AD554EA050307D0302342F002028DF8C5
:1041F000858002928DF88430029B23F4806602232E
:10420000D9E19AF80080029B43F0040302932BE764
:10421000104B1493029B9F06D9D4089B53F8044B70
:104220000893029BDE0600F14F86029B5D0640F17B
:104230004786A4B20025D1E78DF883609AF8008004
:1042400012E700BFAFF30080000000000000000094
:104250009083001A7C83001A029EB00640F10B87FF
:10426000089C073424F007031946F1E8022308915B
:1042700014461D46002A73F1000371DBB9F1FF3FBC
:1042800000F0C58226F08003029354EA050340F053
:10429000BD82B9F1000F41F00E814FF000094E468A
:1042A00054AFBFE2029B9D0643F0100600F18F82DF
:1042B000089B1A1D089B08921C68002501237AE1BF
:1042C000089C54F8047B00258DF88350002F00F0E3
:1042D0003787B9F1FF3F00F0BC874A462946384688
:1042E00002F056FE0990002801F04A82099BA94677
:1042F000DE1BCDE90E9926EAE6739DF8832008942B
:104300000393CDF82490CDF83090002A6FD0039B12
:10431000013303936BE0029B9C0643F0100600F10F
:104320005F82089B1A1D089B08921C6800255EE2AC
:10433000029B9AF8008043F00803029394E6029BE4
:104340009C0643F010068BD4089B1A1D089B08920C
:104350001C68E51722462B46002A73F100038DDA0C
:1043600064424FF02D0365EB4505B9F1FF3F8DF831
:1043700083304FF0010340F02581012B00F047828C
:10438000022B00F0798454A900E03946E20842EAA1
:104390004572E80804F0070305461446303354EA32
:1043A000050201F8013C01F1FF37EED1F20740F1BF
:1043B0008882302B00F085823023023907F8013CD7
:1043C00054AB02960F465E1A2CE2089C002354F868
:1043D000042B8DF8EC2001261A4603960894CDE9AB
:1043E0000E228DF88330099291460C923BAF029BCE
:1043F00013F002030A9302D0039B02330393029B40
:104400002A9C13F084030B9304D1069B03995D1A35
:10441000002D66DC72B1299A013201340DF183005E
:104420000121072ACDE92924CBE9000100F3B1835A
:104430000BF1080B0A9B6BB1299B0133023421A9B4
:104440000222072BCDE92934CBE9001200F3AD831A
:104450000BF1080B0B9B802B00F09582A9EB060556
:10446000002D00F3D382029BDB0500F12E82299BF5
:10447000CBF8007001333444072B2A94CBF8046046
:10448000299300F325830BF1080B029B5D0705D5EB
:10449000069B039A9D1A002D00F3AE83049B069A97
:1044A00003998A42ACBF9B185B180493002C40F020
:1044B000E78200232993099B1BB109990598FEF710
:1044C00033FF0DF1AC0B57463B78002B7FF499ADD1
:1044D0002A9BDDF81C90002B40F0F58600232993E1
:1044E00075E3102D299A29DD594620461E96102382
:1044F000059C079EBB4604E0103D102D01F108010C
:1045000018DD0132BC4F1030072ACDE92920C1E95E
:104510000073F1DD28AA3146204603F05DFB002838
:1045200040F04F83103D102DDDE929202BA94FF0DD
:104530001003E6DC1E9E5F4604468B460132AE4BFE
:104540002C44072ACDE92924CBE9003500F32A863B
:104550000BF1080B9DF883205CE79AF80080029B22
:10456000B8F1680F00F0E38543F0400302937BE568
:10457000029B9AF8008043F00103029374E59DF8D2
:1045800083309AF80080002B7FF46EAD8DF8831095
:104590006AE5089C47F6300254F8043BADF88420E5
:1045A000029A08941C46954B149342F0020600258B
:1045B00002234FF078080022B9F1FF3F8DF88320E5
:1045C0003FF4DBAE26F08002029254EA050240F08E
:1045D000DD82B9F1000F40F04883002B7FF45DAE1F
:1045E00016F0010600F06A8430238DF84F310DF289
:1045F0004F1717E1029EB00600F1F280029B089A65
:10460000D90652F8044B01F14382029E33465B0601
:1046100040F135860892A4B20025E8E00299089A94
:10462000890602F1040300F15284029AD70600F1D0
:10463000E185029A560600F16486029A950540F1DA
:10464000D985089A08931268049B137057463BE774
:104650009AF80080029BB8F16C0F00F05F8543F080
:104660001003029300E5089B9AF8008053F8042B8E
:104670000692002AC0F213850893F5E4059D2846AA
:1046800002F004FC436817931846FFF7F9FB1990F2
:104690000446284602F0FAFB836818932021002C78
:1046A0003FF44AAD189B9AF80080002B3FF4DCAC35
:1046B0001B78002B3FF4D8AC029B43F48063029339
:1046C000D2E4029B9AF8008043F080030293CBE48B
:1046D000524612F8018BB8F12A0F01F0BE81A8F101
:1046E0003003092B92464FF000093FF6BFAC1AF891
:1046F000018B09EB890903EB4909A8F13003092B68
:10470000F5D9B3E4089C073424F00703B3EC027B2B
:1047100055EC174B089325F000431B938DED1A7A47
:10472000DDE91A014FF0FF32354B8DED107B03F0C0
:10473000ABFB002840F0DC834FF0FF32304BDDE96B
:104740001A01FEF761FA002840F0D283002200230C
:1047500020462946FEF74EFA002840F080879DF853
:104760008320284F284B02980021032620F0800048
:10477000039609910290B8F1470FC8BF1F468946BA
:104780000C91CDE90E11C0E5029EB4061FD4029B28
:10479000089AD80652F8044B01F17481029E710602
:1047A00040F177850892A4B20025012303E705981C
:1047B000FEF734FDFFF7EABBB8F1000F3FF488AE17
:1047C000002301261A4603968DF8EC8007E6089C24
:1047D000073424F00703F3E8024508930123EAE6CF
:1047E000089C073424F00703F3E80245089326F4F5
:1047F00080660023DFE600BFB083001A9083001AB2
:10480000FFFFEF7F6C83001A7083001A029E002D59
:1048100008BF0A2C13D2303402968DF84F4101267E
:104820000DF24F1700234E4509930C93CDE90E333B
:104830003346B8BF4B469DF88320039365E506F4E5
:1048400080630022CDE902A8CDF824B054AFCB4656
:104850009246B146DDF860801E4607E0FEF7F2F9A9
:10486000002D08BF0A2C20D304460D460A2200233F
:1048700020462946FEF7E6F902F1300C07F801CC94
:10488000204629460A2200230AF1010A013F002E90
:10489000E4D098F800C0E245E0D1BAF1FF0FDDD0D6
:1048A0009D4208BF944280F01E87CDF848A04E4636
:1048B000CDF86080D946DDF808A0DDF80C80DDF881
:1048C00024B0029654ABDE1BACE7B8F1650F40F3A1
:1048D0000A8100220023DDE91001FEF781F900289A
:1048E00000F0DE81299BC24ACBF80020013301345D
:1048F0000122072BCDE92934CBF8042000F363848F
:104900000BF1080B229B129A2A9C934280F2A582FB
:10491000299B159ACBF80020139ACBF80420013379
:104920001444072BCDE9293400F3EC830BF1080B79
:10493000129B5D1E002D7FF7A8AD102D299AAD4B5F
:1049400040F34E841026059FDDF81C80994605E053
:104950000BF1080B103D102D40F34184013210344F
:10496000072ACDE92924CBE90096F1DD28AA4146A2
:10497000384603F031F9002840F02384DDE929248A
:104980000DF1AC0BE6E7069B039A9D1A002D7FF70D
:1049900065AD102D299A974B28DD0A965946204679
:1049A000BB46059C079E1F4604E0103D102D01F1FB
:1049B000080116DD013210301023072ACDE9292025
:1049C0000F604B60F1DD28AA3146204603F004F960
:1049D000002840F0F680103D102DDDE929202BA99C
:1049E000E8DC0A9E3B4604465F468B4601322C4477
:1049F000072ACDE92924CBE9003500F35583A9EB3B
:104A00000605002D0BF1080B7FF72DAD102D299A0F
:104A1000784B29DD0A9659462046BB464FF01009CF
:104A2000059C079E1F4604E0103D102D01F1080172
:104A300015DD01321030072ACDE92920C1E90079BE
:104A4000F2DD28AA3146204603F0C6F8002840F0DF
:104A5000B880103D102DDDE929202BA9E9DC0A9E44
:104A60003B4604465F468B4601322C44072ACDE97B
:104A70002924CBE9003500F3DA810BF1080BF2E4CD
:104A800028AA0799059803F0A7F800283FF411AD6C
:104A9000DDF81C9096E0299A1599CBF8001013992F
:104AA000CBF8041001320C44072A2A94299200F30F
:104AB000E1840BF1080B002BC0F2A286129B01329D
:104AC0001C44072ACDE92924CBE900737FF7DBAC2E
:104AD00028AA0799059803F07FF80028D8D12A9CC6
:104AE0000DF1AC0BD1E4129A299B012A04F10104C7
:104AF00003F101050BF1080640F358810123072D4E
:104B0000CBF80070CDE92954CBF8043000F32A83A8
:104B1000139B159A691C1C4407290B91CDE9291494
:104B2000C6E9002300F32A8308360B9A129D02F18E
:104B3000010900230022DDE91001CDF8289006F1DB
:104B4000080B05F1FF38FEF74BF8002840F04181D3
:104B50000A9BC6F8048001374444072B37602A9427
:104B6000299300F3BF820B9A06F1100302325E46CE
:104B70000A929B46169A726014440A9A2A9424ABAD
:104B8000072A299233607FF780ACA1E7029EFFF7E6
:104B9000F4BB28AA0799059803F01EF800287FF4B3
:104BA00077AF2A9C0DF1AC0B44E428AA079905982D
:104BB00003F012F800287FF46BAF2A9C0DF1AC0BC8
:104BC00048E4B146099911B10598FEF7ADFBD9F853
:104BD0006420B9F80C30D40702D4980540F1DB8288
:104BE000590600F14086049855B0BDE8F08F00BF2B
:104BF000AC83001AC083001A102D299B21DD1026DA
:104C0000059FDDF81C8004E0103D102D0BF1080B12
:104C100017DD0133B34A1034072BCDE92934CBE932
:104C20000026F1DD28AA4146384602F0D5FF0028CB
:104C300040F0C782103D102DDDE929340DF1AC0B99
:104C4000E7DC0133A74A2C44072BCDE92934CBE913
:104C500000257FF723AC28AA0799059802F0BCFF2E
:104C600000287FF415AF2A9C18E4012B00F0238460
:104C7000022B029E7FF487AB149854AF230904F0F3
:104C80000F0143EA05732A091C461546435C07F8E1
:104C9000013D54EA0503F1D154AB0296DE1BC1E598
:104CA000229B002B40F3DF800E9B129A9342A8BFF9
:104CB0001346002B1D460DDD299BCBF800700133F8
:104CC0002C44072B2A94CBF80450299300F3FE843C
:104CD0000BF1080B0E9B002DA8BF5B1B002B1D4684
:104CE00000F390820E9B3B449946029B580500F1CD
:104CF0001384229B129A934203DB029AD10740F15C
:104D0000F782299A1599CBF800101399CBF8041063
:104D100001320C44072A2A94299200F323850BF1CF
:104D2000080B129ABD18A5EB0905D31A9D42A8BF1E
:104D30001D46002D0DDD299ACBF8009001322C4440
:104D4000072A2A94CBF80450299200F346850BF1E8
:104D5000080B002DACBF5D1B1D46002D7FF795ABEA
:104D6000102D299A604B40F33B821026059FDDF8F9
:104D70001C80994605E00BF1080B103D102D40F307
:104D80002E8201321034072ACDE92924CBE900967E
:104D9000F1DD28AA4146384602F01EFF002840F007
:104DA0001082DDE929240DF1AC0BE6E7029AD20767
:104DB0003FF5A4AE0122072DCBF80070CDE92954B0
:104DC000CBF8042000F38E8102330A930BF1100B11
:104DD000D0E6B8F1000F7FF7CDAEB8F1100F424B1F
:104DE00040F335861A464D4623461027DDF81CB0A1
:104DF000DDF81490144607E00836A8F11008B8F161
:104E0000100F40F35E8101351033072DCDE9295392
:104E1000C6E90047F0DD28AA5946484602F0DCFE04
:104E2000002840F01D82DDE929532BAEE5E728AAD2
:104E30000799059802F0D0FE00287FF429AE2A9C3D
:104E40000DF1AC0BFFF70FBBD9F85800FEF7B4FB20
:104E5000B9F90C2093B2FFF7A3B8029BDD073FF529
:104E600057ADFFF712BB299A2049CBF80010013249
:104E700001340121072ACDE92924CBF8041000F3DD
:104E800009840BF1080B002B7FF405AE029B129AEC
:104E900003F0010313433FF4F8AA299A159BCBF8BA
:104EA0000030139BCBF8043001321C44072A2A94AB
:104EB000299200F3DF820BF1080BFFE554AFB1E458
:104EC000029B980500F12D820025FFF787B9049910
:104ED00012680893CD1708462946C2E900015746D3
:104EE000FFF7F2BAB083001AC083001AAC83001A2D
:104EF000DDE9100102460B4602F0C6FF002840F033
:104F00003A85B8F1610F00F0D084B8F1410F00F09C
:104F10000C8228F02003B9F1FF3F039300F00085D5
:104F2000472B04D1B9F1000F08BF4FF00109DDE9AB
:104F300010450299002D41F48072C0F29583002340
:104F4000CDE90931CDE91C451E930292039B462B06
:104F500000F0DF83452B00F0D28426AA23ABCDE9F5
:104F60000032022122AB4A469DED1C0B059800F051
:104F7000DFFE039B472B074640F08D850A9BDB072E
:104F800000F13B84269EF31B1293229B0E93039BFE
:104F9000472B00F09382039B462B00F0FD8303997F
:104FA0000E9B412903F1FF325FFA88F303BF0F33F1
:104FB000DBB201210021002A8DF89030B8BF0E9B92
:104FC0002292B6BFC3F101022B232D23092A8DF8AB
:104FD000913040F3C1840DF19F042046BE4D01E0A5
:104FE00008461A4685FB0231D317C3EBA10303EB36
:104FF0008301A2EB41013031632A00F8011C00F16A
:10500000FF31EDDC3033821EDBB2944201F8013C0B
:1050100040F244850DF1920201E011F8013B02F8E3
:10502000013BA142F9D10DF1A1030DF192021B1A2E
:10503000134424AA9B1A1693129B169A012B03EB76
:10504000020640F3EE84139B1E440A9B002223F4C5
:10505000806343F48073CDE90E22029326EAE6735F
:105060000C9203931E9B002B40F04F8299469DF8B3
:105070008320FFF74AB9089B1A1D029BD90600F14D
:105080000485029E33465B0640F1EC80089B089243
:10509000B3F90040E51722462B46FFF7EBB8524222
:1050A00006920893FFF7AFB828AA0799059802F06F
:1050B00093FD00287FF4ECAC2A9C0DF1AC0BFFF7BC
:1050C000CDB922461C4613462A4601320A9206F101
:1050D0000802C6E900380A9B29934444072B2A9406
:1050E00040F3008128AA0799059802F075FD002871
:1050F0007FF4CEACDDE9293401330A930DF1B40B12
:105100002BAE37E528AA0799059802F065FD00281F
:105110007FF4BEAC2A9C0DF1AC0B09E443F02003F4
:105120009AF8018002930AF1010AFEF79DBF43F449
:1051300000739AF8018002930AF1010AFEF794BF06
:105140004E46062E28BF0626B9460C97CDE90E77A7
:1051500009973A4603960894604FFFF7D6B83C4645
:10516000FEF775BF28AA0799059802F035FD0028BB
:105170007FF48EACDDE929542BAEC9E428AA079947
:10518000059802F029FD00287FF482ACDDE929347E
:105190002BAE0B93C9E4D9F85800FEF70FFAB9F813
:1051A0000C301DE528AA0799059802F015FD002886
:1051B0007FF46EAC9DF883202A9C0DF1AC0BFFF7B9
:1051C00029B9C146FEE428AA0799059802F004FD12
:1051D00000287FF45DAC0DF1AC0BFFF793BB4B46A1
:1051E00001322C44072ACDE92924CBE900357FF789
:1051F0004AA96DE4089A12680893049B1360574605
:10520000FFF762B9102D299A354B50DD194610264B
:105210002346DDF81480DDF81C900C4604E00BF109
:10522000080B103D102D3FDD01321033072ACDE968
:105230002923CBE90046F2DD28AA4946404602F080
:10524000CBFC00287FF4BEACDDE929230DF1AC0BCB
:10525000E7E73846FEF714FEA9460646FFF749B8C9
:10526000D946AFE4029E089B16F4007F51D093F913
:1052700000400892E51722462B46FEF7FBBF029E30
:10528000B70547BF0892E4B2029E08920025FFF7D7
:10529000AEBA029E089233469B054CBFE4B2029E12
:1052A00000250123FFF787B921461C460B46013232
:1052B0002C44072ACDE92924CBE9003500F3EF80FF
:1052C0000BF1080B0EE5059828AA494602F084FC6C
:1052D00000283FF403A97AE467666666A483001A8F
:1052E000C083001A01330A9302F1080B164641E409
:1052F000129ABD18A5EB0905D31A9D42A8BF1D46F9
:1053000027E5089A08931268049B13805746FFF715
:10531000DBB81C680892E517029E22462B46FEF772
:10532000A9BFE4B20025FEF759BF30238DF88430C1
:1053300058238DF88530029BB9F1630F43F00203C7
:105340000A9300F3B782002309933BAF029A119BA3
:1053500042F481720292002B28F020020392C0F2E4
:1053600088819DED107B8DED1C7B00231E93B8F191
:10537000610F00F0D982B8F1410F7FF4E7AD22A8A8
:105380009DED1C0B02F07CFB00224FF07F5351EC93
:10539000100BFDF7BDF900220023CDE90C01FDF74C
:1053A0001FFC08B101232293B64B0B93CDE90E8A63
:1053B00009F1FF35CDF84890CDF87CB0DDE90C89D6
:1053C000DDF82CB00C97BA4603E0FDF709FC20BBD2
:1053D000B2460022AC4B40464946FDF799F9894652
:1053E000804602F067FD0746FDF728F902460B46A6
:1053F00040464946FCF7D4FF56461BF8074006F8DE
:10540000014BB5F1FF3F2C46804689464FF0000224
:105410004FF0000305F1FF35D7D140464946002241
:105420009A4BDDF83880DDF87CB0CDF838A03D46E9
:10543000DDF848900C9FDDF83CA0CDE90C01FDF7AC
:10544000F7FB002840F01482DDE90C0100228F4BAD
:10545000FDF7C6FB18B12B46DB0700F10982002CD3
:10546000FFF691AD631C3344302206F8012B9E42B7
:10547000FBD188E528AA0799059802F0ADFB002822
:105480007FF406AB229BDDE929240DF1AC0BFFF77D
:1054900012BBD9F85800FEF791F8FEF76ABE28AAA9
:1054A0000799059802F098FB00287FF4F1AA2A9C3E
:1054B0000DF1AC0B16E4029EFFF7ADB90E9BDE1C9E
:1054C00001DB994505DAA8F1020828F020030393CF
:1054D00065E5129B19460E9B994200F374810A9A66
:1054E000D40740F15482139A9E180A9B580503D59D
:1054F0000E9B002B00F34D8226EAE67303934FF0D8
:10550000670800230C930F93ACE52D228DF88320C0
:105510004FF00009FEF7FBBE129BCDF82CA0FB1844
:105520000A930F9B0E975A464F46594EDDF86080FE
:10553000DDF814A0DDF81CB0DDF864902146002BE6
:1055400032D00C9B002B6ED10F9B013B08F1FF3832
:105550000F93299B1798106001334944072B2A9118
:10556000C2F80490299362DC08320A9898F8003057
:10557000C51B9D42A8BF1D46002D0BDD299B176052
:1055800001332944072B2A91556029935ADC98F856
:1055900000300832002DACBF5D1B1D46002D15DC10
:1055A0001F440F9B002BCCD10C9B002B3BD1B94649
:1055B000129B0E9FDDF82CA0CDF86080FB1899455A
:1055C00093460C4628BF9946FFF793BB102D2998A8
:1055D0001CDD102404E0103D102D02F1080215DD41
:1055E000013010310728CDE92901C2E90064F2DD5C
:1055F00028AA5946504602F0EFFA00287FF430AE50
:10560000103D102DDDE929012BAAE9DC01302944E8
:105610000728CDE92901C2E9006549DC98F8003086
:1056200008321F44BDE70C9B013B0C9391E728AA6D
:105630005946504602F0D0FA00287FF411AE2A995C
:105640002BAA92E728AA5946504602F0C5FA00282C
:105650007FF406AE98F800302A992BAA9AE72D22FB
:105660008DF88320FFF77DB8029B0A9300230993EE
:105670000292DDE9101202F100431D932D231C91CB
:105680001E9374E67C83001A000030400000E03F67
:10569000C083001A28AA0799059802F09DFA0028ED
:1056A0007FF4F6A9229B2A9C0DF1AC0BFFF7EBBB14
:1056B00028AA5946504602F08FFA00287FF4D0AD50
:1056C00098F800302A992BAA1F446AE728AA07995C
:1056D000059802F081FA00287FF4DAA92A9C0DF1DE
:1056E000AC0BFFF7F7BA199B1799FF1A1A46384601
:1056F00002F0FCF998F801300BB108F101080A2218
:105700000023204629464FF0000AFDF79BFAFFF7D9
:10571000ABB826AA23ABCDE90032032122AB4A461F
:105720009DED1C0B059800F003FB0378302B07461A
:1057300000F06181229B4B44FC1800220023DDE92C
:105740001C01FDF74DFA08B126461CE4269EA64230
:10575000BFF419AC3022731C26933270269EB442DB
:10576000F9D810E428AA0799059802F035FA00281C
:105770007FF48EA9229B2A9C0DF1AC0BFFF7D1BAC6
:105780004E46CDF80C90089481460C90CDE90E0061
:105790009DF88320FEF7B9BD0A9B0E9A03F0010322
:1057A000002A43EA090340F34281002B40F01981AB
:1057B0000E9E4FF066080A9B5A0500F1EC8026EA1F
:1057C000E67303939DE6DDE912329E180E9B002BD3
:1057D00040F31E814FF06708EDE728AA0799059866
:1057E00002F0FAF900287FF453A9229B129A2A9C0E
:1057F000D31A0DF1AC0BFFF7ACBA07EB09049CE729
:105800005D421033A74B63DA194610262346DDF8B4
:105810001480DDF81C900C4604E00BF1080B103DE1
:10582000102D52DD01321033072ACDE92923CBE9AF
:105830000046F2DD28AA4946404602F0CDF900288C
:105840007FF4C0A9DDE929230DF1AC0BE7E7D9F816
:105850006430DB0707D4B9F80C309F0503D4D9F8BE
:105860005800FDF7ABFE4FF0FF330493FFF7BBB9D1
:105870000E9B26930B9B16F8012CD97B8A4233464C
:1058800009D1302003F8010C269B5A1E269213F8EA
:10589000012C9142F6D0392A0BBF0B9A0132927A31
:1058A000D2B203F8012CFFF76EBB30238DF88430A1
:1058B00078233EE509F101010598FDF781FE0746D1
:1058C000002800F0D580099040E521461C460B4693
:1058D00001322C44072ACDE92924CBE900357FF792
:1058E000EAAA28AA0799059802F076F900287FF419
:1058F000CFA8DDE929240DF1AC0BFFF7DFB809F1E2
:10590000010426A923ABCDE90031224622AB0221B6
:105910009DED1C0B059800F00BFA07463C440CE784
:105920004FF00609FFF703BB22A89DED1C0B02F008
:10593000A7F800224FF07F5351EC100BFCF7E8FE64
:1059400000220023CDE90C01FDF74AF908B101233B
:105950002293554B0B9329E500297BD130238DF8F9
:1059600092300DF19303303203F8012B24AA9B1AD5
:105970001693FFF761BB119B4C4F002BB6BF2D2236
:105980009DF883208DF88320494BFEF7ECBE0E9ED8
:10599000ABE54FF06708189800220C920F9203783D
:1059A0000E9AFF2B0CD093420ADA4178D21AA1B199
:1059B0000F9B01330F930B46FF2B00F10100F2D137
:1059C0000E920F9B0C9A18901344199A02FB0366CF
:1059D00026EAE6730393FFF745BB0C9901310C915E
:1059E000DFE7139BD6184E444FF06608E3E6DDF878
:1059F0001C90FFF7ECB800220023DDE91C01FDF745
:105A0000EFF800287FF496AEC9F10103229392E6E5
:105A1000C3F101031E4426EAE67303934FF06708BF
:105A20006FE50A9BDD077FF510ABFFF70CBB2BB9C9
:105A3000012303931E464FF0660862E5139B5E1C2C
:105A40004E4426EAE67303934FF0660859E55A463A
:105A5000FFF73FBB0DF1920385E7089B9AF80180A1
:105A600053F8040B0893924640EAE079FEF7FCBA3B
:105A7000DDF81C90B9F80C3043F04003A9F80C3065
:105A8000FFF7A5B81E46FEF715BC1E46FEF75EBC26
:105A90001E46FEF748BC4C463C444EE60223169395
:105AA000FFF7CABAC083001A9083001A7483001AE1
:105AB0007883001A2DE9F0410C46ADF58D6D89898A
:105AC000666EE589199621F002010646E069ADF897
:105AD0000C1017464FF48061626AADF80E5098467C
